:100000000C9478000C94A0000C94A0000C94A00018
:100010000C94A0000C94A0000C94A0000C94A000E0
:100020000C94A0000C94A0000C94A0000C94A000D0
:100030000C94A0000C94A0000C94A0000C94A000C0
:100040000C94DE030C94A0000C9472030C944C03EB
:100050000C94A0000C94A0000C94A0000C94A000A0
:100060000C94A0000C94A000ED0D620E2C0E140E4A
:10007000870E870EE70D870EE70D870EE70DE70D5C
:10008000E70D870EE70DE70D4E060606440615063A
:1000900026066A063506600652065E0664060000FD
:1000A0000000240027002A0000000000250028008E
:1000B0002B000404040404040404020202020202E9
:1000C000030303030303010204081020408001021C
:1000D000040810200102040810200000000800029B
:1000E00001000003040700000000000000007D0F75
:1000F00011241FBECFEFD8E0DEBFCDBF13E0A0E0DC
:10010000B1E0E0EDF0E202C005900D92AE3CB10727
:10011000D9F725E0AEECB3E001C01D92AC37B207D1
:10012000E1F710E0C8E7D0E004C02197FE010E948B
:100130004B10C737D107C9F70E9414090C946610F9
:100140000C940000CF92DF92EF92FF920F931F93D7
:10015000CF93DF936C017A018B01C0E0D0E0CE1524
:10016000DF0589F0D8016D918D01D601ED91FC91EB
:100170000190F081E02DC6010995892B11F47E01D3
:1001800002C02196ECCFC701DF91CF911F910F9153
:10019000FF90EF90DF90CF900895089580E090E079
:1001A0000895FC01538D448D252F30E0842F90E07D
:1001B000821B930B541710F0CF9608950197089562
:1001C000FC01918D828D981761F0828DDF01A80F5F
:1001D000B11D5D968C91928D9F5F9F73928F90E081
:1001E00008958FEF9FEF0895FC01918D828D9817F0
:1001F00031F0828DE80FF11D858D90E008958FEF2D
:100200009FEF0895FC01918D228D892F90E0805CF5
:100210009F4F821B91098F739927089584E294E080
:100220000E94020121E0892B09F420E0822F089529
:10023000FC01848DDF01A80FB11DA35ABF4F2C9183
:10024000848D90E001968F739927848FA689B78952
:100250002C93A089B1898C9180648C93938D848D2B
:10026000981306C00288F389E02D80818F7D8083FA
:100270000895EF92FF920F931F93CF93DF93EC01BA
:1002800081E0888F9B8D8C8D981305C0E889F98952
:10029000808185FD24C0F62E0B8D10E00F5F1F4F6F
:1002A0000F731127E02E8C8DE8120CC00FB607FCDF
:1002B000FACFE889F989808185FFF5CFCE010E94C8
:1002C0001801F1CF8B8DFE01E80FF11DE35AFF4FAE
:1002D000F0820B8FEA89FB898081806207C0EE89FA
:1002E000FF896083E889F98980818064808381E067
:1002F00090E0DF91CF911F910F91FF90EF900895C3
:10030000CF93DF93EC01888D8823C9F0EA89FB89BC
:10031000808185FD05C0A889B9898C9186FD0FC0B3
:100320000FB607FCF5CF808185FFF2CFA889B98988
:100330008C9185FFEDCFCE010E941801E7CFDF91B0
:10034000CF91089580E090E0892B29F00E940E0162
:1003500081110C94000008953FB7F89480910C042B
:1003600090910D04A0910E04B0910F0426B5A89BA6
:1003700005C02F3F19F00196A11DB11D3FBFBA2F37
:10038000A92F982F8827820F911DA11DB11DBC0197
:10039000CD0142E0660F771F881F991F4A95D1F75C
:1003A0000895089581E08093FF03089581E080938C
:1003B000FF031092ED0308950E94511090910101E6
:1003C00089131BC06091FA0470E060547109709346
:1003D0000A04609309044091030180910804680FA6
:1003E000711D77FD06C06038710524F06FE770E07D
:1003F00001C060E08CE00C9448080895982F862F87
:10040000642F2091010192131DC0813021F08B35A2
:1004100011F08A3431F460930001409103018DE0C2
:100420005AC0873021F4409103018EE554C08734CF
:1004300031F440930804409103018CE04CC040919A
:10044000030149C09A3069F02091CE033091CF0367
:10045000092E02C0359527950A94E2F720FD03C0C6
:100460000895909107048A3429F158F48A30C9F02C
:1004700018F4873099F008958834C9F08934A1F0D0
:1004800008958D34E9F028F48B3419F18C34A9F0F7
:1004900008958E34C1F08F34C9F00895492F87E054
:1004A0001AC0492F8AE017C0492F88E214C0492F8B
:1004B00089E211C0492F8AE20EC0492F8CE20BC09D
:1004C000492F8DE208C0492F8EE205C0492F8FE2E7
:1004D00002C0492F80E30C94480820910504309114
:1004E00006042150310930930604209305049091AD
:1004F000010189137BC06C30C1F41092000480911B
:10050000F703882331F0803110F4809301011092B9
:10051000F7038091F603882309F481C0803110F439
:10052000809303011092F603089570E080912204F5
:1005300090912304681B790B7093EF036093EE0393
:100540006133710508F06BC08091F2039091F30361
:1005500001979093F3038093F203181619068CF019
:100560004091030160E08CE50E9448081092F3037B
:100570001092F203109208041092F1031092F0030B
:100580000895FB01E15EFE4F30812091F1033213AB
:1005900008C0209108042093F103209100012093CA
:1005A000F0030197E1F58091F103809308049091A5
:1005B000F003909300014091030160910904709150
:1005C0000A04680F711D77FD06C06038710524F0BC
:1005D0006FE770E001C060E08CE00E944808409145
:1005E0000301609100018DE00C9448088A3061F0AD
:1005F0002091CE033091CF03082E02C03595279568
:100600000A94E2F720FF05C06C3049F4109203040D
:100610000895803121F46C3011F41092040408958F
:100620002091EB033091EC03882319F02F5F3F4FAB
:1006300002C0215031093093EC032093EB038091E9
:10064000EB039091EC038B3091052CF01092EC03AE
:100650001092EB0308C097FF06C08AE090E09093E9
:10066000EC038093EB03E091EB03F091EC03EC5F80
:10067000FE4F4091030160818BE50C9448089091F6
:100680000101891303C02091030101C0282F40E01C
:1006900080EC90E00C94EF071F920F920FB60F9230
:1006A00011242F933F934F935F936F937F938F9377
:1006B0009F93AF93BF93EF93FF9384E294E00E94E4
:1006C0001801FF91EF91BF91AF919F918F917F9111
:1006D0006F915F914F913F912F910F900FBE0F90AF
:1006E0001F9018951F920F920FB60F9211242F93FF
:1006F0008F939F93EF93FF93E0913404F09135042F
:100700008081E0913A04F0913B0482FD12C0908117
:1007100080913D048F5F8F7320913E04821751F0CA
:10072000E0913D04F0E0EC5DFB4F958F80933D043C
:1007300001C08081FF91EF919F918F912F910F9038
:100740000FBE0F901F9018958F929F92AF92BF92FD
:10075000CF92DF92EF92FF926B017C010E94AC017D
:100760004B015C01C114D104E104F104F1F00E94D9
:10077000AC01DC01CB0188199909AA09BB09883EA3
:100780009340A105B10570F321E0C21AD108E10838
:10079000F10888EE880E83E0981EA11CB11CC114DC
:1007A000D104E104F10419F7DDCFFF90EF90DF9061
:1007B000CF90BF90AF909F908F9008951F920F920F
:1007C0000FB60F9211242F933F938F939F93AF9364
:1007D000BF938091D1039091D203A091D303B091A4
:1007E000D40330910B0423E0230F2D3720F401961E
:1007F000A11DB11D05C026E8230F0296A11DB11D44
:1008000020930B048093D1039093D203A093D3033E
:10081000B093D40380910C0490910D04A0910E0428
:10082000B0910F040196A11DB11D80930C0490930B
:100830000D04A0930E04B0930F04BF91AF919F914C
:100840008F913F912F910F900FBE0F901F90189591
:100850006D3F71053CF46A3F710554F4683F7105C2
:1008600089F406C09B012E5F31092230310550F416
:10087000DC018D919C91DC01ED91FC910190F08166
:10088000E02D0994089587FF0DC09CE0980F9230E9
:1008900048F0982F9B7F993F29F0803F08F4807F94
:1008A00090E0089580E090E008959C018F7C80386E
:1008B000910561F0203D310549F081E0203E310590
:1008C00039F0203C310521F080E0089581E0089561
:1008D0000895CF93C82F482F60E088E20E9448080F
:1008E0004C2F6FE789E20E9448084C2F6FE78AE29D
:1008F0000E9448084C2F60E48BE20E9448084C2F6D
:1009000060E48CE20E9448084C2F60E08DE20E9477
:1009100048084C2F6FE78EE20E9448084C2F64E68F
:1009200087E00E9448084C2F60E48AE00E94480853
:100930004C2F60E08FE20E9448084C2F6FE780E365
:10094000CF910C9448089091FE03882311F0906198
:1009500001C09F7E9093FE0340910301811102C06C
:1009600060E001C06FE78AE50C944808AF92BF923F
:10097000CF92DF92EF92FF921F93CF93DF93182FC6
:10098000C82FD0E08091FE03282F217030E02C1773
:100990003D0729F06091030184E20E940D098091D6
:1009A000FE0381FBAA24A0F8B12CAC16BD0629F0E9
:1009B0006091030185E20E940D098091FE0382FB94
:1009C000CC24C0F8D12CCC16DD0629F060910301AF
:1009D00086E20E940D098091FE0383FBEE24E0F87D
:1009E000F12CEC16FD0629F06091030187E20E94CC
:1009F0000D099091FE03112311F09F6001C0907FBB
:100A00009093FE03DF91CF911F91FF90EF90DF90C5
:100A1000CF90BF90AF9008951092FF038091F203A2
:100A20009091F303892B81F04091030160E08CE504
:100A30000E9448081092F3031092F20310920804E7
:100A40001092F1031092F00380E00C94B604262F6C
:100A50009091FE03492F50E002C0559547956A9545
:100A6000E2F740FD0FC041E050E060E070E004C0FC
:100A7000440F551F661F771F2A95D2F7492B4093C5
:100A8000FE030FC041E050E060E070E004C0440F9E
:100A9000551F661F771F2A95D2F740959423909390
:100AA000FE03609103010C940D098091ED038F5FAB
:100AB0008093ED038130D9F58091FD03882331F0D7
:100AC00060E084E20E9427051092FD038091FC0300
:100AD000882331F061E085E20E9427051092FC0333
:100AE0008091FB03882331F062E086E20E942705B3
:100AF0001092FB038091FA03882331F063E087E2D0
:100B00000E9427051092FA038091F903882329F0A7
:100B100081E00E94B6041092F9038091F8038823C3
:100B200051F081E00E94A3041092F80308958831E7
:100B300010F01092ED0308951F93CF93DF93182FB9
:100B4000C0E0D0E060E0CE010E941B102196C115EC
:100B500084E0D807B9F767EB71E080E194E00E9488
:100B60005F106CEB71E085E194E00E945F101092E1
:100B70001A0480E180931B0481E080931C048BE0C5
:100B800080931D0484E280931E0480E480931F04FC
:100B9000109221041092200480E090E00E94BE0791
:100BA000112331F0E0E0F0E0DF91CF911F91099443
:100BB000DF91CF911F9108951F93CF93DF93C82F9B
:100BC000D62F142F809105049091060401969093DE
:100BD00006048093050420910101C213D4C06C3037
:100BE00021F481E0809300047AC08091000488237E
:100BF00009F475C0862F90E0FC013D97EB30F105BC
:100C000008F06DC0EC5BFF4F0C944B108091FF031C
:100C1000882341F08091FE0380FD04C081E0809331
:100C2000FD035DC060E084E20EC08091FF03882375
:100C300041F08091FE0381FD04C081E08093FC03BC
:100C40004EC061E085E20E94270549C08091FF0304
:100C5000882341F08091FE0382FD04C081E08093EF
:100C6000FB033DC062E086E2EECF8091FF03882364
:100C700041F08091FE0383FD04C081E08093FA037C
:100C80002EC063E087E2DFCF8091FF03882321F04D
:100C900081E08093F90323C081E001C080E00E94DD
:100CA000B6041DC08091FE0384FF04C080E00E9452
:100CB000A30415C081E08093F80311C081E001C056
:100CC00080E00E9410030BC08091F7038F5F809338
:100CD000F70305C08091F6038F5F8093F6038D2F95
:100CE00090E02091220430912304821B930B909377
:100CF000F5038093F4038133910508F034C1FC01BE
:100D0000E15EFE4F80818093080440910301612FD2
:100D10008EE50E944808409103018091080460918B
:100D2000090470910A04680F711D77FD06C06038D0
:100D3000710524F06FE770E001C060E08CE00E9474
:100D4000480840910301609100018DE00E9448082D
:100D50008091F2039091F30301969093F3038093B3
:100D6000F203019709F0FFC0409103016FE78CE5A2
:100D70000E944808809108048093F103809100014B
:100D80008093F003F0C0CA30E9F08091CE039091D7
:100D9000CF03AC010C2E02C0559547950A94E2F79B
:100DA00040FF98C04C2F612F87E00E944808ED2F2C
:100DB000F0E0E05BFE4F4C2F60818BE20E94480820
:100DC0006C2F82C06C3021F481E08093030448C012
:100DD00080910304882309F443C0603139F4809181
:100DE00007048823E9F10E9469043AC06E30C1F516
:100DF000209107048BEF820F853090F58091CE0310
:100E00009091CF03AC01022E02C0559547950A94EC
:100E1000E2F740FD12C041E050E060E070E004C045
:100E2000440F551F661F771F2A95D2F7482B592B61
:100E30005093CF034093CE0313C041E050E060E0F5
:100E400070E004C0440F551F661F771F2A95D2F724
:100E500040955095842395239093CF038093CE03A0
:100E60008CED8D0F8A30B0F44D2F50E04352510974
:100E70005093020440930104612F87E00E944808C8
:100E80006091010484E20E940D0980910104809325
:100E9000070469C080ED8D0F803508F064C0409173
:100EA0000704442309F45FC0612F87E00E944808CB
:100EB000ED2FF0E0E05BFE4F4091070460818BE294
:100EC0000E9448086091070480E3DF91CF911F9151
:100ED0000C940D09C03109F046C06C3021F481E05A
:100EE0008093040440C0309104043323E1F1603165
:100EF00071F118F56E30B9F53091D00330931A04C2
:100F00003091020130931B0420931C0420910301B3
:100F100020931D042091220420931E04209100019F
:100F200020931F04909321048093200480E090E09C
:100F3000DF91CF911F910C94BE07613171F0633145
:100F400091F4E0E0F0E0DF91CF911F91099481E00E
:100F5000DF91CF911F910C949C059091D00381E07B
:100F600089278093D003DF91CF911F910895DC01F1
:100F7000ED91FC910190F081E02D0994CF92DF92E8
:100F8000EF92FF920F931F93CF93DF931F92CDB7F2
:100F9000DEB76C0100E114E07C0182E1E80EF11C97
:100FA000F80161918F01C60169830E941310698164
:100FB000681719F0C6010E941B10FFEFCF1ADF0A55
:100FC000CE14DF0469F780E194E00F90DF91CF91B8
:100FD0001F910F91FF90EF90DF90CF9008950F93A6
:100FE0001F93CF93DF93EC01142F2150203108F091
:100FF0004AC0803891050CF446C0813E9105B4F595
:10100000062F0F77682F622B8091E904861769F00D
:101010006093E9048091E5049091E604DC01ED9190
:10102000FC910190F081E02D09958091E50490916B
:10103000E604DC01ED91FC910190F081E02D602F40
:101040000995CF7EC03CD105F1F08091E5049091E7
:10105000E604DC01ED91FC91612F6F770190F08146
:10106000E02DDF91CF911F910F910994885F910935
:10107000089748F4BE0185EE94E0DF91CF911F916F
:101080000F910C942804DF91CF911F910F91089537
:10109000242F462F682F80EB90E00C94EF07E7EEAB
:1010A000F0E02491E3EDF0E09491EFEBF0E0E491D7
:1010B000EE2309F43BC0222339F1233091F038F4B8
:1010C0002130A9F0223001F524B52F7D12C0273040
:1010D00091F02830A1F02430B9F4209180002F7DC8
:1010E00003C0209180002F77209380000DC024B58D
:1010F0002F7724BD09C02091B0002F7703C0209125
:10110000B0002F7D2093B000F0E0EE0FFF1FE855F8
:10111000FF4FA591B4912FB7F894EC91811103C0C2
:1011200090959E2301C09E2B9C932FBF08950097FE
:1011300069F0FC0101900020E9F73197AF01481BED
:10114000590BBC0184E294E00C94A20080E090E092
:101150000895CF93DF930E949708EC0181EC91E012
:101160000E9497088C0F9D1FDF91CF9108958F9259
:101170009F92AF92BF920F931F93CF93DF93CDB700
:10118000DEB7A1970FB6F894DEBF0FBECDBF19A290
:10119000423008F44AE08E010F5D1F4F842E912CDF
:1011A000A12CB12CA50194010E942910E62FB901B0
:1011B000CA0101501109EA3014F4E05D01C0E95C94
:1011C000D801EC93232B242B252B61F7C8010E9417
:1011D0009708A1960FB6F894DEBF0FBECDBFDF9182
:1011E000CF911F910F91BF90AF909F908F900895D6
:1011F0000C949708CF93DF93682F70E080E090E025
:101200004AE00E94B708EC0181EC91E00E94970847
:101210008C0F9D1FDF91CF910895262F4FE7682FE8
:1012200080E990E00C94EF07789484B5826084BDE7
:1012300084B5816084BD85B5826085BD85B58160DA
:1012400085BD80916E00816080936E001092810058
:101250008091810082608093810080918100816013
:1012600080938100809180008160809380008091D4
:10127000B10084608093B1008091B0008160809360
:10128000B00080917A00846080937A0080917A0027
:10129000826080937A0080917A00816080937A00E6
:1012A00080917A00806880937A001092C100E3ED0B
:1012B000F0E02491EFEBF0E08491882399F090E046
:1012C000880F991FFC01E256FF4FA591B491FC01D4
:1012D000E855FF4F859194918FB7F894EC91E22BEC
:1012E000EC938FBF05ED13E0C0E0D0E0CE010E948B
:1012F0001310D8018D938D012196C231D105B1F71C
:1013000067EB71E085ED93E00E945610892B41F464
:101310006CEB71E08AED93E00E945610892B29F066
:1013200080E00E949C05C0E00AC082E1E5EDF3E0A8
:10133000A0E1B4E001900D928A95E1F7C1E020911F
:101340001A042093D00380911B04809302018091A2
:101350001C048093010180911D04809303018091FE
:101360001E0490E0909323048093220480911F0434
:101370008093000180912004909121049093CF03E9
:101380008093CE03222309F4B1C0E0913404F0919C
:10139000350482E08083E0913004F09131041082C2
:1013A000E0913204F091330480E1808310923C0498
:1013B000E0913804F091390486E08083E0913604AE
:1013C000F0913704808180618083E0913604F09150
:1013D0003704808188608083E0913604F09137047F
:1013E000808180688083E0913604F09137048081A9
:1013F0008F7D808381EC91E00E94970884EC91E0DE
:101400000E94A90881E192E00E94A9088AE392E083
:101410000E94F8088FE091E00E94A90884EC91E016
:101420000E94A908CC2319F08AE492E002C08BE65E
:1014300092E00E94A90884EC91E00E94A90886E944
:1014400092E00E94F80885E194E00E94A9088DEBE3
:1014500092E00E94F80860911A0470E080E090E049
:101460004AE00E94B70881EC91E00E94970884EE60
:1014700092E00E94F80880911B040E94FA088BE019
:1014800093E00E94F80880911C040E94FA0882E30D
:1014900093E00E94F80880911D040E94FA0889E5F3
:1014A00093E00E94F80880911E040E94FA0880E8E8
:1014B00093E00E94F80880911F040E94FA0887EACE
:1014C00093E00E94F8086091200470912104072E97
:1014D000000C880B990B42E00E94B70881EC91E068
:1014E0000E94970884EC91E00E94A90868EE73E0DE
:1014F00080E090E00E94A403E091E504F091E6040E
:10150000A089B18982E08C93A485B5851C92A685BB
:10151000B7858FE38C93108EA489B58986E08C9370
:10152000A289B3898C9180618C93A289B3898C91B3
:1015300088608C93A289B3898C9180688C9302888F
:10154000F389E02D80818F7D80831092E7041092D3
:10155000E9041092E8041092F0041092EF04109243
:10156000EE041092ED048FEF9FEF9093F2048093BE
:10157000F1049093F4048093F30410927B0510928D
:10158000F8041092F7041092F6041092F9041092E5
:10159000FA0487E08093F5048CED95E09093C40401
:1015A0008093C3048DE692E09093C2048093C104BB
:1015B0008EEF91E09093C8048093C7048FE393E08B
:1015C0009093CA048093C90485E595E09093DA046A
:1015D0008093D90481ED91E09093D4048093D30457
:1015E00086ED91E09093DC048093DB0482ED91E042
:1015F0009093DE048093DD048CE095E09093E0040A
:101600008093DF048EED91E09093CE048093CD041F
:101610006FE770E084E294E00E94B7076BE770E048
:1016200084E294E00E94B70760E070E084E294E016
:101630000E94B707C1E04C2F60E087E00E94480895
:101640006C2F84E20E940D098C2F0E94690468ECC3
:1016500070E080E090E00E94A403CF5FCB3059F7A8
:10166000D4E0C4E04C2F60E087E00E9448086C2F73
:1016700084E20E940D09CF5FC830A1F768EC70E0EA
:1016800080E090E00E94A403D15059F740910301FB
:1016900060E48EE50E94480881E00E94B60468EC90
:1016A00070E080E090E00E94A40380E00E94B60415
:1016B00080E00E94A30468EC70E080E090E00E946B
:1016C000A40360E084E20E94270568EC70E080E0FB
:1016D00090E00E94A40360E084E20E94270561E09C
:1016E00085E20E94270568EC70E080E090E00E94AF
:1016F000A40361E085E20E94270562E086E20E9481
:10170000270568EC70E080E090E00E94A40362E0AE
:1017100086E20E94270563E087E20E94270568ECC5
:1017200070E080E090E00E94A40380E00E94B60494
:101730004091030160E08BE50E944808409103015D
:101740006FE78EE50E944808D1E050E8E52EF12CC5
:1017500060EF462E512C72E0C72ED12CE3E0AE2E66
:10176000B12C88248394912C1091E704113108F056
:101770008DC18091E5049091E604DC01ED91FC912E
:101780000084F185E02D0995892B09F47FC18091B2
:10179000E5049091E604DC01ED91FC910284F3856F
:1017A000E02D09953C018B7F893F09F46FC12091A1
:1017B000EF043091F0042115310509F0AAC06092C0
:1017C000EA04C091E8048C2F0E9443040E9455044F
:1017D000882351F067FC08C0C093EA046092EB04D0
:1017E0009092F0048092EF04C091EA048C2F0E9442
:1017F0004304813F910509F45EC074F5803B910577
:1018000009F45EC06CF48039910509F459C0803A3E
:10181000910509F455C08038910509F0D4C050C035
:10182000803D910509F447C02CF4803C910509F4F2
:1018300042C0C9C0803E910509F442C0803F910575
:1018400009F0C1C0F092EE04E092ED041092E804B9
:10185000B0EFB093FB0438C0883F9105B9F044F471
:10186000833F910541F164F1863F910579F0ABC06A
:101870008A3F91050CF4A7C08D3F91053CF09C0177
:101880002E5F31092230310508F09DC09093F80495
:101890008093F7041092F6041092F9041092FA045F
:1018A000D0937B051092F0041092EF041092EE0496
:1018B0001092ED040DC1D092EE04C092ED0404C06C
:1018C000B092EE04A092ED042091EF043091F00468
:1018D0004091ED045091EE04415051092417350711
:1018E00008F4CEC09093F8048093F704CF70CF5FD4
:1018F000C093F6048091EB048093F9041092FA04EB
:101900001092F0041092EF041092EE041092ED0485
:1019100021C067FE42C0C30199278D3F910554F451
:101920008A3F91056CF4873F9105B9F0883F910596
:10193000A1F506C0AC014E5F51094230510568F572
:101940009093F8048093F7041092F9041092FA042B
:101950001092F604D0937B05BBC08091FB04803FBE
:1019600091F5C9010196F901EF53FB4F27EF22AF23
:101970005092F8044092F7048093F9049093FA048B
:101980001092F604D0937B051092F0041092EF04AD
:101990001092EE041092ED0470C08091EA04F901F7
:1019A000EF53FB4F803FD1F462AE6090ED04709036
:1019B000EE04C30101972817390708F461C0C091EC
:1019C000EA04C03F69F41092F0041092EF04109200
:1019D000EE041092ED041092E80458C061A6E5CF21
:1019E0008C2F0E9443041C019093F8048093F70409
:1019F0000E945504882331F08C2F8F708F5F809365
:101A0000F60402C01092F6048091EB048093F9046E
:101A100083E06816710419F48091EC0401C080E041
:101A20008093FA041092F0041092EF041092EE04E6
:101A30001092ED04D0937B05A0EB2A163104D1F06F
:101A40006CF4E0E92E163104A9F0F0EA2F16310407
:101A500089F020E82216310481F40CC080ED2816AC
:101A6000310441F0A0EE2A16310421F0B0EC2B161F
:101A7000310419F4C093E8042BC01092E80428C084
:101A80002F5F3F4F3093F0042093EF042FB7F8946B
:101A90008091D1039091D203A091D303B091D4034C
:101AA0002FBF4091E7035091E8036091E9037091E3
:101AB000EA03841B950BA60BB70B893E9340A10547
:101AC000B10518F080E00E944F080E94A2014CCEA0
:101AD0008091F7049091F8048039910529F4809160
:101AE000FA04882309F42BC18091F7049091F8043B
:101AF0009C01205831092136310508F025C120917B
:101B0000F604211709F420C1112309F41DC1C0E016
:101B10001EC0813D91050CF46DC1803E910509F018
:101B20007AC1E091CD04F091CE04309779F06091C4
:101B3000FA046F7720E8629FB00111248091F904C4
:101B40008F77682B70528091F6040995C1E040911F
:101B5000F504642F617040FFDAC0842F8E7F09F492
:101B6000D6C08091F7049091F8049C012058310967
:101B70002136310508F52091F604211719F061E0AE
:101B8000111160E0469550E04230510541F043307C
:101B9000510549F04130510509F0B9C006C066232E
:101BA00009F4B5C002C06111B2C04091FA0460915D
:101BB000F9040E94EF07ABC0FC01E05FF109E031DE
:101BC000F10508F0A4C0EC5CFF4F0C944B10BC0175
:101BD00085EE94E00E9428049AC00091FA0410E077
:101BE000102F00278091F904082B0138110510F0FF
:101BF00000E810E0612C712C6016710609F485C0B4
:101C00008091E5049091E604DC01ED91FC91D30113
:101C1000AF53BB4F0190F081E02DDA966C9109959E
:101C2000BFEF6B1A7B0AE8CF1091F9048091E504AD
:101C30009091E604DC01ED91FC910190F081E02DA2
:101C400063EF09951F77612F70E08091E504909113
:101C5000E6040E94B70759C00091FA04B0E80B9F50
:101C6000800111248091F904082B8091E504909162
:101C7000E604DC01ED91FC910190F081E02D62EF32
:101C800009958091E5049091E604DC01ED91FC91C9
:101C9000B8016F7777270190F081E02D0995809149
:101CA000E5049091E604DC01ED91FC91B801660F2A
:101CB000672F661F770B71956F7777270190F081FB
:101CC000E02D22C08091F9048770B0E18B9FC001A4
:101CD00011241091FA041F70182B8091E504909143
:101CE000E604DC01ED91FC910190F081E02D61EFC3
:101CF00009958091E5049091E604DC01ED91FC9159
:101D00000190F081E02D612F09951092E904CC2318
:101D100009F4BCCE2FB7F8948091D1039091D203EF
:101D2000A091D303B091D4032FBF8093E703909386
:101D3000E803A093E903B093EA0381E0C4CEF092F4
:101D4000F804E092F704D0CE813F9105C1F4E09110
:101D5000D104F091D2040CC08B3F91050CF0ACC0C3
:101D6000833F910509F089C0E091D504F091D60434
:101D7000309709F4EBCE8091F9040995E7CE823FC4
:101D800091050CF064C0803B9105C1F4E091C7045B
:101D9000F091C80408C08038910509F0D7CEE091D1
:101DA000C104F091C204309709F4D0CE4091FA04F6
:101DB0006091F9048091F6040995C8CE813B9105A4
:101DC00084F48039910529F4E091C304F091C404AE
:101DD000EACF803A9105F9F6E091C504F091C60486
:101DE000E2CF803D910509F094CEE091CB04F091D3
:101DF000CC0408C0803C910509F0A8CEE091C9044C
:101E0000F091CA04309709F4A1CE6091F904809151
:101E1000F60409959BCE803F910509F097CEE0919D
:101E2000CF04F091D004309709F490CE6091FA0479
:101E300070E0762F66278091F904682B6138710570
:101E400010F060E870E08BEF94E009957FCE8A3F58
:101E5000910509F081CFE091DB04F091DC0408C02A
:101E6000883F910509F072CEE091D904F091DA042F
:101E7000309709F46BCE099569CE833F9105A4F4A0
:101E8000E091D304F091D404309709F45FCE8091AF
:101E9000FA048F77A0E88A9FC00111242091F904E9
:101EA0002F77822B099552CE863F9105C9F6E09196
:101EB000D704F091D804DCCF8C3F910529F4E09150
:101EC000DF04F091E004D4CF8C3F91052CF4E09135
:101ED000DD04F091DE04CCCF8E3F910529F4E09132
:101EE000E104F091E204C4CF8F3F910509F02ECEBA
:101EF000E091E304F091E404BBCFCF93DF93A4E23D
:101F0000B4E013961C921E92129748EE53E060E0E4
:101F100070E014964D935D936D937C93179789EAC7
:101F200091E011969C938E9385EC90E01D969C9386
:101F30008E931C9784EC90E01F969C938E931E9733
:101F400080EC90E051969C938E93509781EC90E0BA
:101F500053969C938E93529782EC90E055969C9367
:101F60008E93549786EC90E057969C938E93569759
:101F700059961C9259975A961C925A975B961C92A6
:101F80005B975C961C925C97E1ECF4E0B5A3A4A38C
:101F900016A217A210A615A614A617A616A68FEFAE
:101FA0009FEF91AB80AB93AB82AB83E08093F50462
:101FB00015AA17AA16AA10AE11AE10927B0580E8DA
:101FC000ABEFB4E0ED0119928A95E9F71182108226
:101FD000138212821582148217821682118610864D
:101FE000138612861586148617861686118A108A1D
:101FF000138A128A158A148A178A168A118E108EED
:10200000138E128E158E148E178E168E11A210A29C
:1020100013A212A284E290E09093230480932204FE
:10202000DF91CF910895F999FECF92BD81BDF89AC5
:10203000992780B50895262FF999FECF1FBA92BD32
:1020400081BD20BD0FB6F894FA9AF99A0FBE019699
:102050000895A1E21A2EAA1BBB1BFD010DC0AA1FE9
:10206000BB1FEE1FFF1FA217B307E407F50720F001
:10207000A21BB30BE40BF50B661F771F881F991F7C
:102080001A9469F760957095809590959B01AC01C5
:10209000BD01CF010895EE0FFF1F0590F491E02DD3
:1020A000099481E090E0F8940C946610FB01DC0147
:1020B0008D91019080190110D9F3990B0895FB01BE
:1020C000DC0101900D920020E1F70895F894FFCF14
:1020D0004001100B00020E16283640545E767F3108
:1020E0002E3230303631392E313630370000000193
:1020F0000407090C0F111416191C1E212326292B65
:102100002E313336383B3E404345484B4D505256B6
:10211000585A5D606265676A6D6F7274787A7C7F09
:1021200000000000000000000000000000000000AF
:10213000000000000000000000000000000000009F
:1021400000000000131415161718191A1B1C1D1E69
:10215000202225282B2D303335383B3D4043454840
:102160004B4E505355585B5D606163646667686AA7
:102170006B6C6D6F70000000003901A200D100800F
:10218000010201E000F400564B303600302E3030B2
:10219000000D0A003D3D3D3D3D3D3D3D3D3D3D3D4C
:1021A0003D3D3D3D3D3D3D3D3D3D3D3D3D3D3D3D5F
:1021B0003D3D3D3D3D3D3D3D3D3D3D3D3D3D3D3D4F
:1021C0003D3D3D3D3D3D3D3D3D3D3D3D3D3D3D3D3F
:1021D0003D3D3D3D3D3D3D3D3D3D3D3D3D3D3D3D2F
:1021E00000564F4C4B414F5353202D204D554C54CE
:1021F000492D44455649434553204D4944492043C0
:102200004F4E54524F4C4C4552004275696C6420FD
:102210006E756D626572203A2000506172616D6565
:102220007465727320726574726965766564206680
:10223000726F6D20454550524F4D00454550524FED
:102240004D20696E697469616C697A65642077698B
:1022500074682064656661756C7420706172616D6C
:1022600065746572730056657273696F6E20202005
:10227000202020202020202020202020202020205E
:10228000202020202020202020203A2000446562A9
:102290007567206D6F64652020202020202020207D
:1022A000202020202020202020202020202020202E
:1022B000203A2000564B204D6964696E2020202072
:1022C000202020202020202020202020202020200E
:1022D00020202020202020203A20004B616F7373A3
:1022E000696C61746F72204D69646920496E2020A9
:1022F0002020202020202020202020202020203AC4
:1023000020004B616F7373696C61746F72204D694B
:102310006469204F75742020202020202020202058
:102320002020202020203A20004B616F7373696CBD
:1023300061746F72207472616E73706F73652020A8
:10234000202020202020202020202020203A200093
:102350004B616F7373696C61746F722020504144DC
:102360002064656661756C742076616C75652020EB
:10237000202020203A2000566F6C63612053616D4D
:10238000706C65206D69646920696E206368616E98
:0E2390006E656C20737461747573203A2000C2
:00000001FF
